{
  "contractName": "NFT",
  "abi": [
    {
      "inputs": [],
      "stateMutability": "nonpayable",
      "type": "constructor"
    },
    {
      "anonymous": false,
      "inputs": [
        {
          "indexed": true,
          "internalType": "address",
          "name": "owner",
          "type": "address"
        },
        {
          "indexed": true,
          "internalType": "address",
          "name": "approved",
          "type": "address"
        },
        {
          "indexed": true,
          "internalType": "uint256",
          "name": "tokenId",
          "type": "uint256"
        }
      ],
      "name": "Approval",
      "type": "event"
    },
    {
      "anonymous": false,
      "inputs": [
        {
          "indexed": true,
          "internalType": "address",
          "name": "owner",
          "type": "address"
        },
        {
          "indexed": true,
          "internalType": "address",
          "name": "operator",
          "type": "address"
        },
        {
          "indexed": false,
          "internalType": "bool",
          "name": "approved",
          "type": "bool"
        }
      ],
      "name": "ApprovalForAll",
      "type": "event"
    },
    {
      "anonymous": false,
      "inputs": [
        {
          "indexed": true,
          "internalType": "address",
          "name": "from",
          "type": "address"
        },
        {
          "indexed": true,
          "internalType": "address",
          "name": "to",
          "type": "address"
        },
        {
          "indexed": true,
          "internalType": "uint256",
          "name": "tokenId",
          "type": "uint256"
        }
      ],
      "name": "Transfer",
      "type": "event"
    },
    {
      "inputs": [
        {
          "internalType": "address",
          "name": "to",
          "type": "address"
        },
        {
          "internalType": "uint256",
          "name": "tokenId",
          "type": "uint256"
        }
      ],
      "name": "approve",
      "outputs": [],
      "stateMutability": "nonpayable",
      "type": "function"
    },
    {
      "inputs": [
        {
          "internalType": "address",
          "name": "owner",
          "type": "address"
        }
      ],
      "name": "balanceOf",
      "outputs": [
        {
          "internalType": "uint256",
          "name": "",
          "type": "uint256"
        }
      ],
      "stateMutability": "view",
      "type": "function",
      "constant": true
    },
    {
      "inputs": [
        {
          "internalType": "uint256",
          "name": "tokenId",
          "type": "uint256"
        }
      ],
      "name": "getApproved",
      "outputs": [
        {
          "internalType": "address",
          "name": "",
          "type": "address"
        }
      ],
      "stateMutability": "view",
      "type": "function",
      "constant": true
    },
    {
      "inputs": [
        {
          "internalType": "address",
          "name": "owner",
          "type": "address"
        },
        {
          "internalType": "address",
          "name": "operator",
          "type": "address"
        }
      ],
      "name": "isApprovedForAll",
      "outputs": [
        {
          "internalType": "bool",
          "name": "",
          "type": "bool"
        }
      ],
      "stateMutability": "view",
      "type": "function",
      "constant": true
    },
    {
      "inputs": [],
      "name": "name",
      "outputs": [
        {
          "internalType": "string",
          "name": "",
          "type": "string"
        }
      ],
      "stateMutability": "view",
      "type": "function",
      "constant": true
    },
    {
      "inputs": [
        {
          "internalType": "uint256",
          "name": "tokenId",
          "type": "uint256"
        }
      ],
      "name": "ownerOf",
      "outputs": [
        {
          "internalType": "address",
          "name": "",
          "type": "address"
        }
      ],
      "stateMutability": "view",
      "type": "function",
      "constant": true
    },
    {
      "inputs": [
        {
          "internalType": "address",
          "name": "from",
          "type": "address"
        },
        {
          "internalType": "address",
          "name": "to",
          "type": "address"
        },
        {
          "internalType": "uint256",
          "name": "tokenId",
          "type": "uint256"
        }
      ],
      "name": "safeTransferFrom",
      "outputs": [],
      "stateMutability": "nonpayable",
      "type": "function"
    },
    {
      "inputs": [
        {
          "internalType": "address",
          "name": "from",
          "type": "address"
        },
        {
          "internalType": "address",
          "name": "to",
          "type": "address"
        },
        {
          "internalType": "uint256",
          "name": "tokenId",
          "type": "uint256"
        },
        {
          "internalType": "bytes",
          "name": "_data",
          "type": "bytes"
        }
      ],
      "name": "safeTransferFrom",
      "outputs": [],
      "stateMutability": "nonpayable",
      "type": "function"
    },
    {
      "inputs": [
        {
          "internalType": "address",
          "name": "operator",
          "type": "address"
        },
        {
          "internalType": "bool",
          "name": "approved",
          "type": "bool"
        }
      ],
      "name": "setApprovalForAll",
      "outputs": [],
      "stateMutability": "nonpayable",
      "type": "function"
    },
    {
      "inputs": [
        {
          "internalType": "bytes4",
          "name": "interfaceId",
          "type": "bytes4"
        }
      ],
      "name": "supportsInterface",
      "outputs": [
        {
          "internalType": "bool",
          "name": "",
          "type": "bool"
        }
      ],
      "stateMutability": "view",
      "type": "function",
      "constant": true
    },
    {
      "inputs": [],
      "name": "symbol",
      "outputs": [
        {
          "internalType": "string",
          "name": "",
          "type": "string"
        }
      ],
      "stateMutability": "view",
      "type": "function",
      "constant": true
    },
    {
      "inputs": [],
      "name": "tokenCount",
      "outputs": [
        {
          "internalType": "uint256",
          "name": "",
          "type": "uint256"
        }
      ],
      "stateMutability": "view",
      "type": "function",
      "constant": true
    },
    {
      "inputs": [
        {
          "internalType": "address",
          "name": "",
          "type": "address"
        },
        {
          "internalType": "uint256",
          "name": "",
          "type": "uint256"
        }
      ],
      "name": "tokenId",
      "outputs": [
        {
          "internalType": "uint256",
          "name": "",
          "type": "uint256"
        }
      ],
      "stateMutability": "view",
      "type": "function",
      "constant": true
    },
    {
      "inputs": [
        {
          "internalType": "uint256",
          "name": "tokenId",
          "type": "uint256"
        }
      ],
      "name": "tokenURI",
      "outputs": [
        {
          "internalType": "string",
          "name": "",
          "type": "string"
        }
      ],
      "stateMutability": "view",
      "type": "function",
      "constant": true
    },
    {
      "inputs": [
        {
          "internalType": "address",
          "name": "from",
          "type": "address"
        },
        {
          "internalType": "address",
          "name": "to",
          "type": "address"
        },
        {
          "internalType": "uint256",
          "name": "tokenId",
          "type": "uint256"
        }
      ],
      "name": "transferFrom",
      "outputs": [],
      "stateMutability": "nonpayable",
      "type": "function"
    },
    {
      "inputs": [
        {
          "internalType": "string",
          "name": "_tokenURI",
          "type": "string"
        }
      ],
      "name": "mint",
      "outputs": [
        {
          "internalType": "uint256",
          "name": "",
          "type": "uint256"
        }
      ],
      "stateMutability": "nonpayable",
      "type": "function"
    },
    {
      "inputs": [],
      "name": "getTokens",
      "outputs": [
        {
          "internalType": "uint256[]",
          "name": "",
          "type": "uint256[]"
        }
      ],
      "stateMutability": "view",
      "type": "function",
      "constant": true
    }
  ],
  "bytecode": "0x60806040523480156200001157600080fd5b506040518060400160405280600681526020017f4d79204e465400000000000000000000000000000000000000000000000000008152506040518060400160405280600281526020017f4d4e000000000000000000000000000000000000000000000000000000000000815250816000908051906020019062000096929190620000b8565b508060019080519060200190620000af929190620000b8565b505050620001cd565b828054620000c69062000197565b90600052602060002090601f016020900481019282620000ea576000855562000136565b82601f106200010557805160ff191683800117855562000136565b8280016001018555821562000136579182015b828111156200013557825182559160200191906001019062000118565b5b50905062000145919062000149565b5090565b5b80821115620001645760008160009055506001016200014a565b5090565b7f4e487b7100000000000000000000000000000000000000000000000000000000600052602260045260246000fd5b60006002820490506001821680620001b057607f821691505b60208210811415620001c757620001c662000168565b5b50919050565b612ea980620001dd6000396000f3fe608060405234801561001057600080fd5b506004361061010b5760003560e01c806370a08231116100a2578063aa6ca80811610071578063aa6ca808146102ca578063b88d4fde146102e8578063c87b56dd14610304578063d85d3d2714610334578063e985e9c5146103645761010b565b806370a082311461024257806395d89b41146102725780639f181b5e14610290578063a22cb465146102ae5761010b565b806323b872dd116100de57806323b872dd146101aa57806342842e0e146101c657806353ba773a146101e25780636352211e146102125761010b565b806301ffc9a71461011057806306fdde0314610140578063081812fc1461015e578063095ea7b31461018e575b600080fd5b61012a60048036038101906101259190611b3e565b610394565b6040516101379190611b86565b60405180910390f35b610148610476565b6040516101559190611c3a565b60405180910390f35b61017860048036038101906101739190611c92565b610508565b6040516101859190611d00565b60405180910390f35b6101a860048036038101906101a39190611d47565b61058d565b005b6101c460048036038101906101bf9190611d87565b6106a5565b005b6101e060048036038101906101db9190611d87565b610705565b005b6101fc60048036038101906101f79190611d47565b610725565b6040516102099190611de9565b60405180910390f35b61022c60048036038101906102279190611c92565b610756565b6040516102399190611d00565b60405180910390f35b61025c60048036038101906102579190611e04565b610808565b6040516102699190611de9565b60405180910390f35b61027a6108c0565b6040516102879190611c3a565b60405180910390f35b610298610952565b6040516102a59190611de9565b60405180910390f35b6102c860048036038101906102c39190611e5d565b610958565b005b6102d261096e565b6040516102df9190611f5b565b60405180910390f35b61030260048036038101906102fd91906120b2565b610a03565b005b61031e60048036038101906103199190611c92565b610a65565b60405161032b9190611c3a565b60405180910390f35b61034e600480360381019061034991906121d6565b610bb7565b60405161035b9190611de9565b60405180910390f35b61037e6004803603810190610379919061221f565b610c5b565b60405161038b9190611b86565b60405180910390f35b60007f80ac58cd000000000000000000000000000000000000000000000000000000007bffffffffffffffffffffffffffffffffffffffffffffffffffffffff1916827bffffffffffffffffffffffffffffffffffffffffffffffffffffffff1916148061045f57507f5b5e139f000000000000000000000000000000000000000000000000000000007bffffffffffffffffffffffffffffffffffffffffffffffffffffffff1916827bffffffffffffffffffffffffffffffffffffffffffffffffffffffff1916145b8061046f575061046e82610cef565b5b9050919050565b6060600080546104859061228e565b80601f01602080910402602001604051908101604052809291908181526020018280546104b19061228e565b80156104fe5780601f106104d3576101008083540402835291602001916104fe565b820191906000526020600020905b8154815290600101906020018083116104e157829003601f168201915b5050505050905090565b600061051382610d59565b610552576040517f08c379a000000000000000000000000000000000000000000000000000000000815260040161054990612332565b60405180910390fd5b6004600083815260200190815260200160002060009054906101000a900473ffffffffffffffffffffffffffffffffffffffff169050919050565b600061059882610756565b90508073ffffffffffffffffffffffffffffffffffffffff168373ffffffffffffffffffffffffffffffffffffffff161415610609576040517f08c379a0000000000000000000000000000000000000000000000000000000008152600401610600906123c4565b60405180910390fd5b8073ffffffffffffffffffffffffffffffffffffffff16610628610dc5565b73ffffffffffffffffffffffffffffffffffffffff161480610657575061065681610651610dc5565b610c5b565b5b610696576040517f08c379a000000000000000000000000000000000000000000000000000000000815260040161068d90612456565b60405180910390fd5b6106a08383610dcd565b505050565b6106b66106b0610dc5565b82610e86565b6106f5576040517f08c379a00000000000000000000000000000000000000000000000000000000081526004016106ec906124e8565b60405180910390fd5b610700838383610f64565b505050565b61072083838360405180602001604052806000815250610a03565b505050565b6008602052816000526040600020818154811061074157600080fd5b90600052602060002001600091509150505481565b6000806002600084815260200190815260200160002060009054906101000a900473ffffffffffffffffffffffffffffffffffffffff169050600073ffffffffffffffffffffffffffffffffffffffff168173ffffffffffffffffffffffffffffffffffffffff1614156107ff576040517f08c379a00000000000000000000000000000000000000000000000000000000081526004016107f69061257a565b60405180910390fd5b80915050919050565b60008073ffffffffffffffffffffffffffffffffffffffff168273ffffffffffffffffffffffffffffffffffffffff161415610879576040517f08c379a00000000000000000000000000000000000000000000000000000000081526004016108709061260c565b60405180910390fd5b600360008373ffffffffffffffffffffffffffffffffffffffff1673ffffffffffffffffffffffffffffffffffffffff168152602001908152602001600020549050919050565b6060600180546108cf9061228e565b80601f01602080910402602001604051908101604052809291908181526020018280546108fb9061228e565b80156109485780601f1061091d57610100808354040283529160200191610948565b820191906000526020600020905b81548152906001019060200180831161092b57829003601f168201915b5050505050905090565b60075481565b61096a610963610dc5565b83836111cb565b5050565b6060600860003373ffffffffffffffffffffffffffffffffffffffff1673ffffffffffffffffffffffffffffffffffffffff1681526020019081526020016000208054806020026020016040519081016040528092919081815260200182805480156109f957602002820191906000526020600020905b8154815260200190600101908083116109e5575b5050505050905090565b610a14610a0e610dc5565b83610e86565b610a53576040517f08c379a0000000000000000000000000000000000000000000000000000000008152600401610a4a906124e8565b60405180910390fd5b610a5f84848484611338565b50505050565b6060610a7082610d59565b610aaf576040517f08c379a0000000000000000000000000000000000000000000000000000000008152600401610aa69061269e565b60405180910390fd5b6000600660008481526020019081526020016000208054610acf9061228e565b80601f0160208091040260200160405190810160405280929190818152602001828054610afb9061228e565b8015610b485780601f10610b1d57610100808354040283529160200191610b48565b820191906000526020600020905b815481529060010190602001808311610b2b57829003601f168201915b505050505090506000610b59611394565b9050600081511415610b6f578192505050610bb2565b600082511115610ba4578082604051602001610b8c9291906126fa565b60405160208183030381529060405292505050610bb2565b610bad846113ab565b925050505b919050565b600060076000815480929190610bcc9061274d565b9190505550610bdd33600754611452565b610be960075483611470565b600860003373ffffffffffffffffffffffffffffffffffffffff1673ffffffffffffffffffffffffffffffffffffffff16815260200190815260200160002060075490806001815401808255809150506001900390600052602060002001600090919091909150556007549050919050565b6000600560008473ffffffffffffffffffffffffffffffffffffffff1673ffffffffffffffffffffffffffffffffffffffff16815260200190815260200160002060008373ffffffffffffffffffffffffffffffffffffffff1673ffffffffffffffffffffffffffffffffffffffff16815260200190815260200160002060009054906101000a900460ff16905092915050565b60007f01ffc9a7000000000000000000000000000000000000000000000000000000007bffffffffffffffffffffffffffffffffffffffffffffffffffffffff1916827bffffffffffffffffffffffffffffffffffffffffffffffffffffffff1916149050919050565b60008073ffffffffffffffffffffffffffffffffffffffff166002600084815260200190815260200160002060009054906101000a900473ffffffffffffffffffffffffffffffffffffffff1673ffffffffffffffffffffffffffffffffffffffff1614159050919050565b600033905090565b816004600083815260200190815260200160002060006101000a81548173ffffffffffffffffffffffffffffffffffffffff021916908373ffffffffffffffffffffffffffffffffffffffff160217905550808273ffffffffffffffffffffffffffffffffffffffff16610e4083610756565b73ffffffffffffffffffffffffffffffffffffffff167f8c5be1e5ebec7d5bd14f71427d1e84f3dd0314c0f7b2291e5b200ac8c7c3b92560405160405180910390a45050565b6000610e9182610d59565b610ed0576040517f08c379a0000000000000000000000000000000000000000000000000000000008152600401610ec790612808565b60405180910390fd5b6000610edb83610756565b90508073ffffffffffffffffffffffffffffffffffffffff168473ffffffffffffffffffffffffffffffffffffffff161480610f1d5750610f1c8185610c5b565b5b80610f5b57508373ffffffffffffffffffffffffffffffffffffffff16610f4384610508565b73ffffffffffffffffffffffffffffffffffffffff16145b91505092915050565b8273ffffffffffffffffffffffffffffffffffffffff16610f8482610756565b73ffffffffffffffffffffffffffffffffffffffff1614610fda576040517f08c379a0000000000000000000000000000000000000000000000000000000008152600401610fd19061289a565b60405180910390fd5b600073ffffffffffffffffffffffffffffffffffffffff168273ffffffffffffffffffffffffffffffffffffffff16141561104a576040517f08c379a00000000000000000000000000000000000000000000000000000000081526004016110419061292c565b60405180910390fd5b6110558383836114e4565b611060600082610dcd565b6001600360008573ffffffffffffffffffffffffffffffffffffffff1673ffffffffffffffffffffffffffffffffffffffff16815260200190815260200160002060008282546110b0919061294c565b925050819055506001600360008473ffffffffffffffffffffffffffffffffffffffff1673ffffffffffffffffffffffffffffffffffffffff16815260200190815260200160002060008282546111079190612980565b92505081905550816002600083815260200190815260200160002060006101000a81548173ffffffffffffffffffffffffffffffffffffffff021916908373ffffffffffffffffffffffffffffffffffffffff160217905550808273ffffffffffffffffffffffffffffffffffffffff168473ffffffffffffffffffffffffffffffffffffffff167fddf252ad1be2c89b69c2b068fc378daa952ba7f163c4a11628f55a4df523b3ef60405160405180910390a46111c68383836114e9565b505050565b8173ffffffffffffffffffffffffffffffffffffffff168373ffffffffffffffffffffffffffffffffffffffff16141561123a576040517f08c379a000000000000000000000000000000000000000000000000000000000815260040161123190612a22565b60405180910390fd5b80600560008573ffffffffffffffffffffffffffffffffffffffff1673ffffffffffffffffffffffffffffffffffffffff16815260200190815260200160002060008473ffffffffffffffffffffffffffffffffffffffff1673ffffffffffffffffffffffffffffffffffffffff16815260200190815260200160002060006101000a81548160ff0219169083151502179055508173ffffffffffffffffffffffffffffffffffffffff168373ffffffffffffffffffffffffffffffffffffffff167f17307eab39ab6107e8899845ad3d59bd9653f200f220920489ca2b5937696c318360405161132b9190611b86565b60405180910390a3505050565b611343848484610f64565b61134f848484846114ee565b61138e576040517f08c379a000000000000000000000000000000000000000000000000000000000815260040161138590612ab4565b60405180910390fd5b50505050565b606060405180602001604052806000815250905090565b60606113b682610d59565b6113f5576040517f08c379a00000000000000000000000000000000000000000000000000000000081526004016113ec90612b46565b60405180910390fd5b60006113ff611394565b9050600081511161141f576040518060200160405280600081525061144a565b8061142984611676565b60405160200161143a9291906126fa565b6040516020818303038152906040525b915050919050565b61146c8282604051806020016040528060008152506117d7565b5050565b61147982610d59565b6114b8576040517f08c379a00000000000000000000000000000000000000000000000000000000081526004016114af90612bd8565b60405180910390fd5b806006600084815260200190815260200160002090805190602001906114df929190611a2f565b505050565b505050565b505050565b600061150f8473ffffffffffffffffffffffffffffffffffffffff16611832565b15611669578373ffffffffffffffffffffffffffffffffffffffff1663150b7a02611538610dc5565b8786866040518563ffffffff1660e01b815260040161155a9493929190612c4d565b6020604051808303816000875af192505050801561159657506040513d601f19601f820116820180604052508101906115939190612cae565b60015b611619573d80600081146115c6576040519150601f19603f3d011682016040523d82523d6000602084013e6115cb565b606091505b50600081511415611611576040517f08c379a000000000000000000000000000000000000000000000000000000000815260040161160890612ab4565b60405180910390fd5b805181602001fd5b63150b7a0260e01b7bffffffffffffffffffffffffffffffffffffffffffffffffffffffff1916817bffffffffffffffffffffffffffffffffffffffffffffffffffffffff19161491505061166e565b600190505b949350505050565b606060008214156116be576040518060400160405280600181526020017f300000000000000000000000000000000000000000000000000000000000000081525090506117d2565b600082905060005b600082146116f05780806116d99061274d565b915050600a826116e99190612d0a565b91506116c6565b60008167ffffffffffffffff81111561170c5761170b611f87565b5b6040519080825280601f01601f19166020018201604052801561173e5781602001600182028036833780820191505090505b5090505b600085146117cb57600182611757919061294c565b9150600a856117669190612d3b565b60306117729190612980565b60f81b81838151811061178857611787612d6c565b5b60200101907effffffffffffffffffffffffffffffffffffffffffffffffffffffffffffff1916908160001a905350600a856117c49190612d0a565b9450611742565b8093505050505b919050565b6117e18383611855565b6117ee60008484846114ee565b61182d576040517f08c379a000000000000000000000000000000000000000000000000000000000815260040161182490612ab4565b60405180910390fd5b505050565b6000808273ffffffffffffffffffffffffffffffffffffffff163b119050919050565b600073ffffffffffffffffffffffffffffffffffffffff168273ffffffffffffffffffffffffffffffffffffffff1614156118c5576040517f08c379a00000000000000000000000000000000000000000000000000000000081526004016118bc90612de7565b60405180910390fd5b6118ce81610d59565b1561190e576040517f08c379a000000000000000000000000000000000000000000000000000000000815260040161190590612e53565b60405180910390fd5b61191a600083836114e4565b6001600360008473ffffffffffffffffffffffffffffffffffffffff1673ffffffffffffffffffffffffffffffffffffffff168152602001908152602001600020600082825461196a9190612980565b92505081905550816002600083815260200190815260200160002060006101000a81548173ffffffffffffffffffffffffffffffffffffffff021916908373ffffffffffffffffffffffffffffffffffffffff160217905550808273ffffffffffffffffffffffffffffffffffffffff16600073ffffffffffffffffffffffffffffffffffffffff167fddf252ad1be2c89b69c2b068fc378daa952ba7f163c4a11628f55a4df523b3ef60405160405180910390a4611a2b600083836114e9565b5050565b828054611a3b9061228e565b90600052602060002090601f016020900481019282611a5d5760008555611aa4565b82601f10611a7657805160ff1916838001178555611aa4565b82800160010185558215611aa4579182015b82811115611aa3578251825591602001919060010190611a88565b5b509050611ab19190611ab5565b5090565b5b80821115611ace576000816000905550600101611ab6565b5090565b6000604051905090565b600080fd5b600080fd5b60007fffffffff0000000000000000000000000000000000000000000000000000000082169050919050565b611b1b81611ae6565b8114611b2657600080fd5b50565b600081359050611b3881611b12565b92915050565b600060208284031215611b5457611b53611adc565b5b6000611b6284828501611b29565b91505092915050565b60008115159050919050565b611b8081611b6b565b82525050565b6000602082019050611b9b6000830184611b77565b92915050565b600081519050919050565b600082825260208201905092915050565b60005b83811015611bdb578082015181840152602081019050611bc0565b83811115611bea576000848401525b50505050565b6000601f19601f8301169050919050565b6000611c0c82611ba1565b611c168185611bac565b9350611c26818560208601611bbd565b611c2f81611bf0565b840191505092915050565b60006020820190508181036000830152611c548184611c01565b905092915050565b6000819050919050565b611c6f81611c5c565b8114611c7a57600080fd5b50565b600081359050611c8c81611c66565b92915050565b600060208284031215611ca857611ca7611adc565b5b6000611cb684828501611c7d565b91505092915050565b600073ffffffffffffffffffffffffffffffffffffffff82169050919050565b6000611cea82611cbf565b9050919050565b611cfa81611cdf565b82525050565b6000602082019050611d156000830184611cf1565b92915050565b611d2481611cdf565b8114611d2f57600080fd5b50565b600081359050611d4181611d1b565b92915050565b60008060408385031215611d5e57611d5d611adc565b5b6000611d6c85828601611d32565b9250506020611d7d85828601611c7d565b9150509250929050565b600080600060608486031215611da057611d9f611adc565b5b6000611dae86828701611d32565b9350506020611dbf86828701611d32565b9250506040611dd086828701611c7d565b9150509250925092565b611de381611c5c565b82525050565b6000602082019050611dfe6000830184611dda565b92915050565b600060208284031215611e1a57611e19611adc565b5b6000611e2884828501611d32565b91505092915050565b611e3a81611b6b565b8114611e4557600080fd5b50565b600081359050611e5781611e31565b92915050565b60008060408385031215611e7457611e73611adc565b5b6000611e8285828601611d32565b9250506020611e9385828601611e48565b9150509250929050565b600081519050919050565b600082825260208201905092915050565b6000819050602082019050919050565b611ed281611c5c565b82525050565b6000611ee48383611ec9565b60208301905092915050565b6000602082019050919050565b6000611f0882611e9d565b611f128185611ea8565b9350611f1d83611eb9565b8060005b83811015611f4e578151611f358882611ed8565b9750611f4083611ef0565b925050600181019050611f21565b5085935050505092915050565b60006020820190508181036000830152611f758184611efd565b905092915050565b600080fd5b600080fd5b7f4e487b7100000000000000000000000000000000000000000000000000000000600052604160045260246000fd5b611fbf82611bf0565b810181811067ffffffffffffffff82111715611fde57611fdd611f87565b5b80604052505050565b6000611ff1611ad2565b9050611ffd8282611fb6565b919050565b600067ffffffffffffffff82111561201d5761201c611f87565b5b61202682611bf0565b9050602081019050919050565b82818337600083830152505050565b600061205561205084612002565b611fe7565b90508281526020810184848401111561207157612070611f82565b5b61207c848285612033565b509392505050565b600082601f83011261209957612098611f7d565b5b81356120a9848260208601612042565b91505092915050565b600080600080608085870312156120cc576120cb611adc565b5b60006120da87828801611d32565b94505060206120eb87828801611d32565b93505060406120fc87828801611c7d565b925050606085013567ffffffffffffffff81111561211d5761211c611ae1565b5b61212987828801612084565b91505092959194509250565b600067ffffffffffffffff8211156121505761214f611f87565b5b61215982611bf0565b9050602081019050919050565b600061217961217484612135565b611fe7565b90508281526020810184848401111561219557612194611f82565b5b6121a0848285612033565b509392505050565b600082601f8301126121bd576121bc611f7d565b5b81356121cd848260208601612166565b91505092915050565b6000602082840312156121ec576121eb611adc565b5b600082013567ffffffffffffffff81111561220a57612209611ae1565b5b612216848285016121a8565b91505092915050565b6000806040838503121561223657612235611adc565b5b600061224485828601611d32565b925050602061225585828601611d32565b9150509250929050565b7f4e487b7100000000000000000000000000000000000000000000000000000000600052602260045260246000fd5b600060028204905060018216806122a657607f821691505b602082108114156122ba576122b961225f565b5b50919050565b7f4552433732313a20617070726f76656420717565727920666f72206e6f6e657860008201527f697374656e7420746f6b656e0000000000000000000000000000000000000000602082015250565b600061231c602c83611bac565b9150612327826122c0565b604082019050919050565b6000602082019050818103600083015261234b8161230f565b9050919050565b7f4552433732313a20617070726f76616c20746f2063757272656e74206f776e6560008201527f7200000000000000000000000000000000000000000000000000000000000000602082015250565b60006123ae602183611bac565b91506123b982612352565b604082019050919050565b600060208201905081810360008301526123dd816123a1565b9050919050565b7f4552433732313a20617070726f76652063616c6c6572206973206e6f74206f7760008201527f6e6572206e6f7220617070726f76656420666f7220616c6c0000000000000000602082015250565b6000612440603883611bac565b915061244b826123e4565b604082019050919050565b6000602082019050818103600083015261246f81612433565b9050919050565b7f4552433732313a207472616e736665722063616c6c6572206973206e6f74206f60008201527f776e6572206e6f7220617070726f766564000000000000000000000000000000602082015250565b60006124d2603183611bac565b91506124dd82612476565b604082019050919050565b60006020820190508181036000830152612501816124c5565b9050919050565b7f4552433732313a206f776e657220717565727920666f72206e6f6e657869737460008201527f656e7420746f6b656e0000000000000000000000000000000000000000000000602082015250565b6000612564602983611bac565b915061256f82612508565b604082019050919050565b6000602082019050818103600083015261259381612557565b9050919050565b7f4552433732313a2062616c616e636520717565727920666f7220746865207a6560008201527f726f206164647265737300000000000000000000000000000000000000000000602082015250565b60006125f6602a83611bac565b91506126018261259a565b604082019050919050565b60006020820190508181036000830152612625816125e9565b9050919050565b7f45524337323155524953746f726167653a2055524920717565727920666f722060008201527f6e6f6e6578697374656e7420746f6b656e000000000000000000000000000000602082015250565b6000612688603183611bac565b91506126938261262c565b604082019050919050565b600060208201905081810360008301526126b78161267b565b9050919050565b600081905092915050565b60006126d482611ba1565b6126de81856126be565b93506126ee818560208601611bbd565b80840191505092915050565b600061270682856126c9565b915061271282846126c9565b91508190509392505050565b7f4e487b7100000000000000000000000000000000000000000000000000000000600052601160045260246000fd5b600061275882611c5c565b91507fffffffffffffffffffffffffffffffffffffffffffffffffffffffffffffffff82141561278b5761278a61271e565b5b600182019050919050565b7f4552433732313a206f70657261746f7220717565727920666f72206e6f6e657860008201527f697374656e7420746f6b656e0000000000000000000000000000000000000000602082015250565b60006127f2602c83611bac565b91506127fd82612796565b604082019050919050565b60006020820190508181036000830152612821816127e5565b9050919050565b7f4552433732313a207472616e736665722066726f6d20696e636f72726563742060008201527f6f776e6572000000000000000000000000000000000000000000000000000000602082015250565b6000612884602583611bac565b915061288f82612828565b604082019050919050565b600060208201905081810360008301526128b381612877565b9050919050565b7f4552433732313a207472616e7366657220746f20746865207a65726f2061646460008201527f7265737300000000000000000000000000000000000000000000000000000000602082015250565b6000612916602483611bac565b9150612921826128ba565b604082019050919050565b6000602082019050818103600083015261294581612909565b9050919050565b600061295782611c5c565b915061296283611c5c565b9250828210156129755761297461271e565b5b828203905092915050565b600061298b82611c5c565b915061299683611c5c565b9250827fffffffffffffffffffffffffffffffffffffffffffffffffffffffffffffffff038211156129cb576129ca61271e565b5b828201905092915050565b7f4552433732313a20617070726f766520746f2063616c6c657200000000000000600082015250565b6000612a0c601983611bac565b9150612a17826129d6565b602082019050919050565b60006020820190508181036000830152612a3b816129ff565b9050919050565b7f4552433732313a207472616e7366657220746f206e6f6e20455243373231526560008201527f63656976657220696d706c656d656e7465720000000000000000000000000000602082015250565b6000612a9e603283611bac565b9150612aa982612a42565b604082019050919050565b60006020820190508181036000830152612acd81612a91565b9050919050565b7f4552433732314d657461646174613a2055524920717565727920666f72206e6f60008201527f6e6578697374656e7420746f6b656e0000000000000000000000000000000000602082015250565b6000612b30602f83611bac565b9150612b3b82612ad4565b604082019050919050565b60006020820190508181036000830152612b5f81612b23565b9050919050565b7f45524337323155524953746f726167653a2055524920736574206f66206e6f6e60008201527f6578697374656e7420746f6b656e000000000000000000000000000000000000602082015250565b6000612bc2602e83611bac565b9150612bcd82612b66565b604082019050919050565b60006020820190508181036000830152612bf181612bb5565b9050919050565b600081519050919050565b600082825260208201905092915050565b6000612c1f82612bf8565b612c298185612c03565b9350612c39818560208601611bbd565b612c4281611bf0565b840191505092915050565b6000608082019050612c626000830187611cf1565b612c6f6020830186611cf1565b612c7c6040830185611dda565b8181036060830152612c8e8184612c14565b905095945050505050565b600081519050612ca881611b12565b92915050565b600060208284031215612cc457612cc3611adc565b5b6000612cd284828501612c99565b91505092915050565b7f4e487b7100000000000000000000000000000000000000000000000000000000600052601260045260246000fd5b6000612d1582611c5c565b9150612d2083611c5c565b925082612d3057612d2f612cdb565b5b828204905092915050565b6000612d4682611c5c565b9150612d5183611c5c565b925082612d6157612d60612cdb565b5b828206905092915050565b7f4e487b7100000000000000000000000000000000000000000000000000000000600052603260045260246000fd5b7f4552433732313a206d696e7420746f20746865207a65726f2061646472657373600082015250565b6000612dd1602083611bac565b9150612ddc82612d9b565b602082019050919050565b60006020820190508181036000830152612e0081612dc4565b9050919050565b7f4552433732313a20746f6b656e20616c7265616479206d696e74656400000000600082015250565b6000612e3d601c83611bac565b9150612e4882612e07565b602082019050919050565b60006020820190508181036000830152612e6c81612e30565b905091905056fea2646970667358221220e20582b0c49793f5bd88739b7bc20a4670f75f30b70dcf9ac325e6dfc18e8ab064736f6c634300080a0033",
  "immutableReferences": {},
  "source": "// SPDX-License-Identifier: MIT\r\npragma solidity ^0.8.9;\r\n\r\nimport \"@openzeppelin/contracts/token/ERC721/extensions/ERC721URIStorage.sol\";\r\n\r\ncontract NFT is ERC721URIStorage {\r\n    uint256 public tokenCount;\r\n    mapping(address => uint256[]) public tokenId;\r\n\r\n    constructor() ERC721(\"My NFT\", \"MN\") {}\r\n\r\n    function mint(string memory _tokenURI) external returns (uint256) {\r\n        tokenCount++;\r\n        _safeMint(msg.sender, tokenCount);\r\n        _setTokenURI(tokenCount, _tokenURI);\r\n        tokenId[msg.sender].push(tokenCount);\r\n        return tokenCount;\r\n    }\r\n\r\n    function getTokens() external view returns (uint256[] memory) {\r\n        return tokenId[msg.sender];\r\n    }\r\n}\r\n",
  "sourcePath": "C:\\Users\\Akki\\Desktop\\NFT Minting\\contracts\\NFT.sol",
  "compiler": {
    "name": "solc",
    "version": "0.8.10+commit.fc410830.Emscripten.clang"
  },
  "schemaVersion": "3.4.4",
  "updatedAt": "2022-05-06T16:02:39.579Z",
  "networkType": "ethereum",
  "devdoc": {
    "kind": "dev",
    "methods": {
      "approve(address,uint256)": {
        "details": "See {IERC721-approve}."
      },
      "balanceOf(address)": {
        "details": "See {IERC721-balanceOf}."
      },
      "getApproved(uint256)": {
        "details": "See {IERC721-getApproved}."
      },
      "isApprovedForAll(address,address)": {
        "details": "See {IERC721-isApprovedForAll}."
      },
      "name()": {
        "details": "See {IERC721Metadata-name}."
      },
      "ownerOf(uint256)": {
        "details": "See {IERC721-ownerOf}."
      },
      "safeTransferFrom(address,address,uint256)": {
        "details": "See {IERC721-safeTransferFrom}."
      },
      "safeTransferFrom(address,address,uint256,bytes)": {
        "details": "See {IERC721-safeTransferFrom}."
      },
      "setApprovalForAll(address,bool)": {
        "details": "See {IERC721-setApprovalForAll}."
      },
      "supportsInterface(bytes4)": {
        "details": "See {IERC165-supportsInterface}."
      },
      "symbol()": {
        "details": "See {IERC721Metadata-symbol}."
      },
      "tokenURI(uint256)": {
        "details": "See {IERC721Metadata-tokenURI}."
      },
      "transferFrom(address,address,uint256)": {
        "details": "See {IERC721-transferFrom}."
      }
    },
    "version": 1
  },
  "userdoc": {
    "kind": "user",
    "methods": {},
    "version": 1
  }
}